{
  "contractName": "addresstest",
  "abi": [
    {
      "constant": true,
      "inputs": [],
      "name": "a",
      "outputs": [
        {
          "internalType": "address",
          "name": "",
          "type": "address"
        }
      ],
      "payable": false,
      "stateMutability": "view",
      "type": "function"
    },
    {
      "constant": true,
      "inputs": [],
      "name": "account1",
      "outputs": [
        {
          "internalType": "address",
          "name": "",
          "type": "address"
        }
      ],
      "payable": false,
      "stateMutability": "view",
      "type": "function"
    },
    {
      "constant": true,
      "inputs": [],
      "name": "changeIt",
      "outputs": [
        {
          "internalType": "uint160",
          "name": "",
          "type": "uint160"
        }
      ],
      "payable": false,
      "stateMutability": "view",
      "type": "function"
    },
    {
      "constant": true,
      "inputs": [],
      "name": "changeIt2",
      "outputs": [
        {
          "internalType": "address",
          "name": "",
          "type": "address"
        }
      ],
      "payable": false,
      "stateMutability": "view",
      "type": "function"
    },
    {
      "constant": true,
      "inputs": [],
      "name": "check1",
      "outputs": [
        {
          "internalType": "bool",
          "name": "",
          "type": "bool"
        }
      ],
      "payable": false,
      "stateMutability": "view",
      "type": "function"
    }
  ],
  "bytecode": "0x608060405273e65f418b14af660a6e69f04ee7e4dc94bb0d9f276000806101000a81548173ffffffffffffffffffffffffffffffffffffffff021916908373ffffffffffffffffffffffffffffffffffffffff160217905550735c92b050fda1fcacf353bddf474bd9a41fefb377600160006101000a81548173ffffffffffffffffffffffffffffffffffffffff021916908373ffffffffffffffffffffffffffffffffffffffff1602179055503480156100b957600080fd5b506102e4806100c96000396000f3fe608060405234801561001057600080fd5b50600436106100575760003560e01c80630dbe671f1461005c5780631b5e8b93146100a657806327b5c175146100c8578063e5c5d72314610112578063ecfd0a561461015c575b600080fd5b6100646101a6565b604051808273ffffffffffffffffffffffffffffffffffffffff1673ffffffffffffffffffffffffffffffffffffffff16815260200191505060405180910390f35b6100ae6101cc565b604051808215151515815260200191505060405180910390f35b6100d0610245565b604051808273ffffffffffffffffffffffffffffffffffffffff1673ffffffffffffffffffffffffffffffffffffffff16815260200191505060405180910390f35b61011a61026e565b604051808273ffffffffffffffffffffffffffffffffffffffff1673ffffffffffffffffffffffffffffffffffffffff16815260200191505060405180910390f35b61016461028a565b604051808273ffffffffffffffffffffffffffffffffffffffff1673ffffffffffffffffffffffffffffffffffffffff16815260200191505060405180910390f35b600160009054906101000a900473ffffffffffffffffffffffffffffffffffffffff1681565b6000600160009054906101000a900473ffffffffffffffffffffffffffffffffffffffff1673ffffffffffffffffffffffffffffffffffffffff166000809054906101000a900473ffffffffffffffffffffffffffffffffffffffff1673ffffffffffffffffffffffffffffffffffffffff1611905090565b60008060009054906101000a900473ffffffffffffffffffffffffffffffffffffffff16905090565b600073e65f418b14af660a6e69f04ee7e4dc94bb0d9f27905090565b6000809054906101000a900473ffffffffffffffffffffffffffffffffffffffff168156fea265627a7a72315820c63a06521fa7296de3258282f4f4de5163f686865e32acdb9a5b33c8b7bc609564736f6c63430005110032",
  "source": "pragma solidity ^0.5.17;\n\ncontract addresstest {\n     address public account1 = 0xe65f418B14AF660A6e69f04EE7e4dC94bB0D9f27;\n    address public a=0x5C92B050Fda1fCaCf353BddF474bd9A41fEfB377;\n    \n     function changeIt() public view returns(uint160) {\n        return uint160(account1);\n     }\n\n     function changeIt2() public view returns(address) {\n      return address(1315192157708673347696721970112989957208375402279);\n     }\n\n     function check1() public view returns(bool) {\n      return account1>a;\n     }\n}",
  "sourcePath": "/Users/zsjiao/Desktop/truffle/contracts/addresstest.sol",
  "compiler": {
    "name": "solc",
    "version": "0.5.17+commit.d19bba13.Darwin.appleclang"
  },
  "schemaVersion": "3.4.16",
  "updatedAt": "2024-04-26T12:22:34.657Z",
  "devdoc": {
    "methods": {}
  },
  "userdoc": {
    "methods": {}
  }
}