{
  "contractName": "addresstest",
  "abi": [
    {
      "constant": true,
      "inputs": [],
      "name": "a",
      "outputs": [
        {
          "internalType": "address",
          "name": "",
          "type": "address"
        }
      ],
      "payable": false,
      "stateMutability": "view",
      "type": "function"
    },
    {
      "constant": true,
      "inputs": [],
      "name": "account1",
      "outputs": [
        {
          "internalType": "address",
          "name": "",
          "type": "address"
        }
      ],
      "payable": false,
      "stateMutability": "view",
      "type": "function"
    },
    {
      "constant": true,
      "inputs": [],
      "name": "changeIt",
      "outputs": [
        {
          "internalType": "uint160",
          "name": "",
          "type": "uint160"
        }
      ],
      "payable": false,
      "stateMutability": "view",
      "type": "function"
    }
  ],
  "bytecode": "0x608060405273e65f418b14af660a6e69f04ee7e4dc94bb0d9f276000806101000a81548173ffffffffffffffffffffffffffffffffffffffff021916908373ffffffffffffffffffffffffffffffffffffffff160217905550735c92b050fda1fcacf353bddf474bd9a41fefb377600160006101000a81548173ffffffffffffffffffffffffffffffffffffffff021916908373ffffffffffffffffffffffffffffffffffffffff1602179055503480156100b957600080fd5b506101cd806100c96000396000f3fe608060405234801561001057600080fd5b50600436106100415760003560e01c80630dbe671f1461004657806327b5c17514610090578063ecfd0a56146100da575b600080fd5b61004e610124565b604051808273ffffffffffffffffffffffffffffffffffffffff1673ffffffffffffffffffffffffffffffffffffffff16815260200191505060405180910390f35b61009861014a565b604051808273ffffffffffffffffffffffffffffffffffffffff1673ffffffffffffffffffffffffffffffffffffffff16815260200191505060405180910390f35b6100e2610173565b604051808273ffffffffffffffffffffffffffffffffffffffff1673ffffffffffffffffffffffffffffffffffffffff16815260200191505060405180910390f35b600160009054906101000a900473ffffffffffffffffffffffffffffffffffffffff1681565b60008060009054906101000a900473ffffffffffffffffffffffffffffffffffffffff16905090565b6000809054906101000a900473ffffffffffffffffffffffffffffffffffffffff168156fea265627a7a723158208f9f0b52bf6f02d60cc3740c3a210cd84a7c5a60c397c37e950a13e21740216e64736f6c63430005110032",
  "source": "pragma solidity ^0.5.17;\n\ncontract addresstest {\n     address public account1 = 0xe65f418B14AF660A6e69f04EE7e4dC94bB0D9f27;\n    address public a=0x5C92B050Fda1fCaCf353BddF474bd9A41fEfB377;\n    \n     function changeIt() public view returns(uint160) {\n        return uint160(account1);\n     }\n}",
  "sourcePath": "/Users/zsjiao/Desktop/truffle/contracts/addresstest.sol",
  "compiler": {
    "name": "solc",
    "version": "0.5.17+commit.d19bba13.Darwin.appleclang"
  },
  "schemaVersion": "3.4.16",
  "updatedAt": "2024-04-09T10:34:01.209Z",
  "networkType": "ethereum",
  "devdoc": {
    "methods": {}
  },
  "userdoc": {
    "methods": {}
  }
}