{
  "contractName": "payableTest",
  "abi": [
    {
      "constant": false,
      "inputs": [],
      "name": "pay",
      "outputs": [],
      "payable": true,
      "stateMutability": "payable",
      "type": "function"
    },
    {
      "constant": true,
      "inputs": [],
      "name": "getBalance",
      "outputs": [
        {
          "internalType": "uint256",
          "name": "",
          "type": "uint256"
        }
      ],
      "payable": false,
      "stateMutability": "view",
      "type": "function"
    },
    {
      "constant": true,
      "inputs": [],
      "name": "getThis",
      "outputs": [
        {
          "internalType": "address",
          "name": "",
          "type": "address"
        }
      ],
      "payable": false,
      "stateMutability": "view",
      "type": "function"
    },
    {
      "constant": true,
      "inputs": [],
      "name": "getoneBalance",
      "outputs": [
        {
          "internalType": "uint256",
          "name": "",
          "type": "uint256"
        }
      ],
      "payable": false,
      "stateMutability": "view",
      "type": "function"
    }
  ],
  "bytecode": "0x608060405234801561001057600080fd5b5061017a806100206000396000f3fe60806040526004361061003f5760003560e01c806312065fe014610044578063185786421461006f5780631b9265b81461009a578063b8368615146100a4575b600080fd5b34801561005057600080fd5b506100596100fb565b6040518082815260200191505060405180910390f35b34801561007b57600080fd5b50610084610103565b6040518082815260200191505060405180910390f35b6100a261013b565b005b3480156100b057600080fd5b506100b961013d565b604051808273ffffffffffffffffffffffffffffffffffffffff1673ffffffffffffffffffffffffffffffffffffffff16815260200191505060405180910390f35b600047905090565b60008073e65f418b14af660a6e69f04ee7e4dc94bb0d9f2790508073ffffffffffffffffffffffffffffffffffffffff163191505090565b565b60003090509056fea265627a7a72315820d4ec541170576f2789fea2b9001acba0a9e0a0bceb936bb414dd8785a741e7a164736f6c63430005110032",
  "source": "pragma solidity ^0.5.17;\n\ncontract payableTest {\n    function pay() public payable {\n\n    }\n\n    function getBalance() public view returns(uint256) {\n        return address(this).balance;\n    }\n\n    function getThis() public view returns(address) {\n        return address(this);\n    }\n\n    function getoneBalance() public view returns(uint) {\n        address account = 0xe65f418B14AF660A6e69f04EE7e4dC94bB0D9f27;\n        return account.balance;\n    }\n}",
  "sourcePath": "/Users/zsjiao/Desktop/truffle/contracts/payable.sol",
  "compiler": {
    "name": "solc",
    "version": "0.5.17+commit.d19bba13.Darwin.appleclang"
  },
  "schemaVersion": "3.4.16",
  "updatedAt": "2024-04-26T12:22:35.433Z",
  "networkType": "ethereum",
  "devdoc": {
    "methods": {}
  },
  "userdoc": {
    "methods": {}
  }
}